:020000040000FA
:06000000C4EF1CF0120029
:06080000C4EF1CF0120021
:04080800B3EF16F044
:020818001200CC
:06082A000200F739000096
:100830004301000002000000EE3900003301000017
:0408400009000000AB
:0C084400D9CFE6FFDACFE6FFE1CFD9FF05
:10085000E2CFDAFFFB0EDBCFF3FFDB06F35000093C
:1008600019E0FC0EDBCFE6FFFD0EDBCFE6FFFA0E54
:10087000DBCFE6FF0EEC1BF0E552E552E552F3CF7D
:1008800014F0F4CF15F00001F31CE4E1151CE2E1D3
:10089000010E01D0000EE552E5CFDAFFE7CFD9FF18
:1008A0001200D9CFE6FFDACFE6FFE1CFD9FFE2CFE2
:1008B000DAFF3B0EE12402E3E168E652E16E010E4D
:1008C000DB6A020EDB6AFA0EDBCFF6FFFB0EDBCF34
:1008D000F7FF0800F550DF6EDF5002E130EF0DF05A
:1008E000250EDF5C02E007EF0DF0030EDB6A040E5D
:1008F000DB6A050EDB6A060EDB6A070EDB6AFA0EA0
:10090000DB2ADBCFF6FFFB0E01E3DB2ADBCFF7FFB1
:100910000800F550DF6E2D0EDF5C0CE02B0EDF5C67
:1009200009E0200EDF5C06E0230EDF5C03E0300E02
:10093000DF5C21E1DF50300A14E0130A0FE0030A04
:100940000AE00B0A05E0060A0EE1030EDB800BD07D
:10095000030EDB8208D0030EDB8405D0030EDB869A
:1009600002D0030EDB88FA0EDB2ADBCFF6FFFB0E8C
:10097000CDE3DB2ACBD72A0EDF5C47E1F80EDBCFD5
:1009800014F0F90EDBCF15F0020E145E000E155AAE
:10099000F80E14C0DBFFF90E15C0DBFF14C0E9FF31
:1009A00015C0EAFF130EEECFDBFF140EEDCFDBFF19
:1009B000130EDBCF14F0140EDBCF15F00001800E08
:1009C000151410E0030EDB8006680768130EDBCFFA
:1009D0000BF0140EDBCF0CF0EAEC1BF0040E04C09D
:1009E000DBFF06D0130EDB50E76E040EE7CFDBFF14
:1009F000FA0EDB2ADBCFF6FFFB0E01E3DB2ADBCFAF
:100A0000F7FF0800F550DF6E28D0090EDB6ADFCF54
:100A1000E6FFE66AB2EC1CF0E552E552F35017E04F
:100A2000090EDB500A0DF350DF24D00FE76E090EDC
:100A3000E7CFDBFFFA0EDB2ADBCFF6FFFB0E01E38D
:100A4000DB2ADBCFF7FF0800F550DF6EE0D7090E99
:100A5000DB50E76E040EE7CFDBFF030EDBB0DB9865
:100A60002E0EDF5C01E078D0FA0EDB2ADBCFF6FF3A
:100A7000FB0E01E3DB2ADBCFF7FF0800F550DF6E4A
:100A80002A0EDF5C3CE1F80EDBCF14F0F90EDBCF71
:100A900015F0020E145E000E155AF80E14C0DBFF9E
:100AA000F90E15C0DBFF14C0E9FF15C0EAFF130EF5
:100AB000EECFDBFF140EEDCFDBFF130EDBCF14F018
:100AC000140EDBCF15F00001800E15140BE1130E90
:100AD000DB50E76E050EE7CFDBFF010EF36E060E6F
:100AE000F3CFDBFFFA0EDB2ADBCFF6FFFB0E01E3D1
:100AF000DB2ADBCFF7FF0800F550DF6E2DD0090EA3
:100B0000DB6ADFCFE6FFE66AB2EC1CF0E552E552A5
:100B1000F35017E0090EDB500A0DF350DF24D00F1D
:100B2000E76E090EE7CFDBFFFA0EDB2ADBCFF6FF1D
:100B3000FB0E01E3DB2ADBCFF7FF0800F550DF6E89
:100B4000E0D7090EDB50E76E050EE7CFDBFF010EA5
:100B5000F36E060EF3CFDBFF680EDF5C1BE1FA0ECF
:100B6000DB2ADBCFF6FFFB0E01E3DB2ADBCFF7FF4F
:100B70000800F550DF6E680EDF5C46E1030EF36E91
:100B8000070EF3CFDBFFFA0EDB2ADBCFF6FFFB0EFF
:100B900036E321D0740EDF5C03E07A0EDF5C07E100
:100BA000FA0EDB2ADBCFF6FFFB0E29E314D0480E4A
:100BB000DF5C06E0540EDF5C03E05A0EDF5C0DE103
:100BC000020EF36E070EF3CFDBFFFA0EDB2ADBCF4C
:100BD000F6FFFB0E14E3DB2A12D06C0EDF5C03E0A1
:100BE0006A0EDF5C11E1010EF36E070EF3CFDBFF3F
:100BF000FA0EDB2ADBCFF6FFFB0E01E3DB2ADBCFAD
:100C0000F7FF0800F550DF6EDF506E0A02E16EEF6D
:100C10000CF01E0A01E13CD3200A01E139D33F0A5E
:100C200001E1D1D21A0A01E1CED20D0A01E1CBD203
:100C3000200A01E1C8D23A0A01E1C5D2200A01E145
:100C4000C2D2260A01E1BDD20D0A01E1BAD21A0AC6
:100C500001E1CED1200A01E1ADD0300A2CE0460AF4
:100C600009E0250A02E025EF0DF0FA0EDB06FB0E87
:100C700001E2DB06FC0EDBCFE6FFFD0EDBCFE6FF7D
:100C8000250EE66E0EEC1BF0E552E552E552F3CF71
:100C900014F0F4CF15F00001F31C04E1151C02E17F
:100CA0001DEF0DF0010EDB2A020E02E225EF0DF022
:100CB000DB2A25EF0DF0080EDB6A040EDB5001087D
:100CC00013E2040EDB04E76E080EE7CFDBFFDB5018
:100CD000146E156AD950010FE96E000EDA20EA6E23
:100CE0001450EE261550ED22080EDB501AE0030ECC
:100CF000DB50010B16E1200EE66E080EDBCFE6FF9F
:100D0000FC0EDBCFE6FFFD0EDBCFE6FF9BDDE55201
:100D1000E552E552E552000902E01DEF0DF0080E24
:100D2000DB6AF80EDBCF14F0F90EDBCF15F0020E04
:100D3000145E000E155AF80E14C0DBFFF90E15C034
:100D4000DBFF14C0E9FF15C0EAFFEFCFDFFFFC0EA9
:100D5000DBCFE6FFFD0EDBCFE6FFDFCFE6FF0EECDD
:100D60001BF0E552E552E552F3CF14F0F4CF15F045
:100D70000001F31C04E1151C02E11DEF0DF0010E52
:100D8000DB2A020E01E3DB2A200EE66E080EDBCF23
:100D9000E6FFFC0EDBCFE6FFFD0EDBCFE6FF52DD0C
:100DA000E552E552E552E552000902E125EF0DF06A
:100DB0001DEF0DF0070EDB5002081EE1F80EDBCF31
:100DC00014F0F90EDBCF15F0030E145E000E155A69
:100DD000F80E14C0DBFFF90E15C0DBFF14C0E9FFED
:100DE00015C0EAFF0E0EEECFDBFF0F0EEECFDBFFDE
:100DF000100EEECFDBFF22D0F80EDBCF17F0F90E8E
:100E0000DBCF18F0020E175E000E185AF80E17C04E
:100E1000DBFFF90E18C0DBFF17C0E9FF18C0EAFFBF
:100E2000EECF14F0EFCF15F0166A0E0E14C0DBFFF4
:100E30000F0E15C0DBFF100E16C0DBFF0E0EDBCF52
:100E4000E6FF0F0EDBCFE6FFC8EC1BF0E552E552E4
:100E5000130E05C0DBFF140E06C0DBFF060EDB50D1
:100E600016E0130EDB50F36E050EDBCFF4FFF350EC
:100E7000F45C0DE2050EDB50E66ED950130FE96EFF
:100E8000000EDA20EA6EE552E750EE6EED6A130EC0
:100E9000DB50F36E040EDBCFF4FFF350F45C06E29C
:100EA000130EDB50E76E040EE7CFDBFF040EDBCF43
:100EB000E6FF130EDB50E552E75CE76E080EE7CF66
:100EC000DBFFDB50146E156AD950010FE96E000E7E
:100ED000DA20EA6E1450EE261550ED22060EDB5095
:100EE0000FE0040EDB50F36E050EDBCFF4FFF35082
:100EF000F45C06E2050EDB50E76E040EE7CFDBFF85
:100F0000030EDBB016D0200EE66E080EDBCFE6FF38
:100F1000FC0EDBCFE6FFFD0EDBCFE6FF93DCE552F8
:100F2000E552E552E552000902E01DEF0DF0080E12
:100F3000DB6A090EDB6A0E0EDBCFF6FF0F0EDBCF8E
:100F4000F7FF100EDBCFF8FF0800F550DF6EDF5023
:100F500039E0040EDB50F36E090EDBCFF4FFF350E3
:100F6000F45C30E2FC0EDBCFE6FFFD0EDBCFE6FFEC
:100F7000DFCFE6FF0EEC1BF0E552E552E552F3CF72
:100F800014F0F4CF15F00001F31C04E1151C02E18C
:100F90001DEF0DF0010EDB2A020E01E3DB2A090E24
:100FA000DB2AD9500E0FE96E000EDA20EA6EEF2A26
:100FB000EECFF6FF000EEF22EECFF7FFEF22EECFDF
:100FC000F8FFC2D7200EE66E080EDBCFE6FFFC0E60
:100FD000DBCFE6FFFD0EDBCFE6FF34DCE552E5526A
:100FE000E552E552000902E125EF0DF01DEF0DF08D
:100FF000F80EDBCF14F0F90EDBCF15F0020E145E05
:10100000000E155AF80E14C0DBFFF90E15C0DBFFF9
:1010100014C0E9FF15C0EAFF110EEECFDBFF120E80
:10102000EDCFDBFF110EDBCFE6FF120EDBCFE6FFCD
:10103000BAEC1BF0E552E552130EF3CFDBFF140EB2
:10104000F4CFDBFF060EDB5016E0130EDB50F36E21
:10105000050EDBCFF4FFF350F45C0DE2050EDB5020
:10106000E66ED950130FE96E000EDA20EA6EE552F3
:10107000E750EE6EED6A130EDB50F36E040EDBCF1D
:10108000F4FFF350F45C06E2130EDB50E76E040E3F
:10109000E7CFDBFF040EDBCFE6FF130EDB50E5529C
:1010A000E75CE76E080EE7CFDBFFDB50146E156AD6
:1010B000D950010FE96E000EDA20EA6E1450EE26C8
:1010C0001550ED22060EDB500FE0040EDB50F36EE0
:1010D000050EDBCFF4FFF350F45C06E2050EDB50A7
:1010E000E76E040EE7CFDBFF030EDBB017D0200E58
:1010F000E66E080EDBCFE6FFFC0EDBCFE6FFFD0E53
:10110000DBCFE6FF22EC04F0E552E552E552E55272
:10111000000902E01DEF0DF0080EDB6A090EDB6A24
:10112000110EDBCFE9FF120EDBCFEAFFEFCFDFFFBF
:10113000DF5030E0040EDB50F36E090EDBCFF4FF1E
:10114000F350F45C27E2FC0EDBCFE6FFFD0EDBCFB5
:10115000E6FFDFCFE6FF0EEC1BF0E552E552E5526D
:10116000F3CF14F0F4CF15F00001F31C04E1151CCB
:1011700002E11DEF0DF0010EDB2A020E01E3DB2A76
:10118000090EDB2A110EDB2ADBCFE9FF120ECCE3BE
:10119000DB2ACAD7200EE66E080EDBCFE6FFFC0E78
:1011A000DBCFE6FFFD0EDBCFE6FF22EC04F0E552DD
:1011B000E552E552E552000902E125EF0DF01DEF81
:1011C0000DF0030EDB8E070EDB0421E1F80EDBCF02
:1011D00014F0F90EDBCF15F0040E145E000E155A54
:1011E000F80E14C0DBFFF90E15C0DBFF14C0E9FFD9
:1011F00015C0EAFF0A0EEECFDBFF0B0EEECFDBFFD2
:101200000C0EEECFDBFF0D0EEECFDBFFD2D0070EC4
:10121000DB5003083DE1030EDBAE1ED0F80EDBCF42
:1012200018F0F90EDBCF19F0020E185E000E195AF5
:10123000F80E18C0DBFFF90E19C0DBFF18C0E9FF7C
:1012400019C0EAFFEFCF14F0156A166A176A14AED8
:1012500081D0156816687DD0F80EDBCF15F0F90E39
:10126000DBCF16F0020E155E000E165AF80E15C0F2
:10127000DBFFF90E16C0DBFF15C0E9FF16C0EAFF61
:10128000EFCF14F00A0E14C0DBFF0B0EDB6A8DD01B
:10129000070EDB5002083DE1030EDBAE1ED0F80E58
:1012A000DBCF18F0F90EDBCF19F0030E185E000E3D
:1012B000195AF80E18C0DBFFF90E19C0DBFF18C071
:1012C000E9FF19C0EAFFEECF14F0EECF15F0EFCF33
:1012D00016F0176A16AE3ED03CD0F80EDBCF18F0F1
:1012E000F90EDBCF19F0030E185E000E195AF80E36
:1012F00018C0DBFFF90E19C0DBFF18C0E9FF19C0E9
:10130000EAFFEECF14F0EECF15F0EFCF16F0176A2C
:1013100021D0030EDBAE2BD0F80EDBCF18F0F90E88
:10132000DBCF19F0020E185E000E195AF80E18C025
:10133000DBFFF90E19C0DBFF18C0E9FF19C0EAFF97
:10134000EECF14F0EFCF15F0166A176A15AE02D083
:10135000166817680A0E14C0DBFF0B0E15C0DBFF02
:101360000C0E16C0DBFF0D0E17C0DBFF22D0F80EEF
:10137000DBCF16F0F90EDBCF17F0020E165E000E73
:10138000175AF80E16C0DBFFF90E17C0DBFF16C0A8
:10139000E9FF17C0EAFFEECF14F0EFCF15F00A0E09
:1013A00014C0DBFF0B0E15C0DBFF0C0EDB6A0D0E4D
:1013B000DB6A060EDB5005E1010EF36E050EF3CF7E
:1013C000DBFF150EDB6A160EDB6AD950370F146E81
:1013D000000EDA20156E390E14C0DBFF3A0E15C070
:1013E000DBFF380EDB6A080EDB6A0A0EF36E070EAF
:1013F000F3CFDBFFDF50780A12E0200A10E0280A62
:101400000CE0200A0AE03F0A06E00D0A02E0200A8A
:101410000BE1020E05D0080E03D0080EDF26100ED9
:10142000F36E070EF3CFDBFF030EDBBE02D0DB92C1
:10143000DB94DB50800B34E0D9500A0FE96E000ECC
:10144000DA20EA6ED890030EEB50000A08E6000E90
:10145000EE5C000EEE58000EEE58000EEE5820E244
:101460000A0EDBCF04F00B0EDBCF05F00C0EDBCF4A
:1014700006F00D0EDBCF07F009680A680B680C68F0
:1014800050EC1BF00A0E00C0DBFF0B0E01C0DBFFAF
:101490000C0E02C0DBFF0D0E03C0DBFF2D0E08D0CB
:1014A000030EDBA202D02B0E03D0DBA408D0200E4B
:1014B000F36E170EF3CFDBFF150EDB2A02D0170EEB
:1014C000DB6A050EDB5012E10A0EDBCF14F00B0EC7
:1014D000DBCF15F00C0EDBCF16F00D0EDBCF17F0C7
:1014E000145015101610171001E1AAD0070EDBCF0B
:1014F00014F0156A166A176A14C009F015C00AF0CC
:1015000016C00BF017C00CF00A0EDBCF04F00B0E68
:10151000DBCF05F00C0EDBCF06F00D0EDBCF07F0B6
:1015200041EC1CF000C0F6FF01C0F7FFC00EF6262C
:10153000390EF7220800090EF5CFDBFF580EDF5CED
:1015400012E1610EF36E090EDBCFF4FFF350F45C91
:101550000AE3200E146E090EDBCFE7FF1450E75E9E
:10156000090EE7CFDBFF070EDBCF14F0156A166A12
:10157000176AD9500A0FE96E000EDA20EA6E14C01D
:1015800009F015C00AF016C00BF017C00CF0EECF32
:1015900004F0EECF05F0EECF06F0EFCF07F041EC10
:1015A0001CF007C0EDFF06C0EDFF05C0EDFF04C055
:1015B000EFFF390EDBCFE9FFDB063A0EDBCFEAFFA8
:1015C00001E2DB06090EDBCFEFFF150EDB2A0A0E68
:1015D000DBCF14F00B0EDBCF15F00C0EDBCF16F0CB
:1015E0000D0EDBCF17F0145015101610171001E078
:1015F0007DD7030EDBA626D06F0EDF5C0FE1050E54
:10160000DBCF14F0150EDB50D88014541BE3150EFD
:10161000DB28E76E050EE7CFDBFF14D0780EDF5C2A
:1016200009E0580EDF5C06E0620EDF5C03E0420E6C
:10163000DF5C08E1020EF36E160EF3CFDBFF02D083
:10164000150EDB6A030EDB50100B11E0040EDBCF2E
:1016500014F0050EDB50D880145409E2060EDB505E
:1016600006E1040EDB50E76E050EE7CFDBFF050E4B
:10167000DBCF14F0150EDB50D88014540AE2050EAF
:10168000DBCFE7FF150EDB50E75E050EE7CFDBFF94
:1016900002D0050EDB6A040EDBCF14F0160EDBCF92
:1016A000E6FF150EDBCFE6FF050EDB50E552E72423
:1016B000E552E724D880145417E2160EDBCFE6FF7C
:1016C000150EDBCFE6FF040EDBCFE6FF050EDB5089
:1016D000E552E75CE552D880E754E552D880E754FC
:1016E000E76E080EE7CFDBFF030EDB50010B27E1AF
:1016F000080EDB5024E0200EE66E080EDBCFE6FF7E
:10170000FC0EDBCFE6FFFD0EDBCFE6FF22EC04F0A4
:10171000E552E552E552E552000901E08ED1080E8E
:10172000DB50146E156AD950010FE96E000EDA20F5
:10173000EA6E1450EE261550ED22080EDB6A170EE5
:10174000DB5018E0FC0EDBCFE6FFFD0EDBCFE6FF43
:10175000170EDBCFE6FF0EEC1BF0E552E552E5522B
:10176000F3CF14F0F4CF15F00001F31C03E1151CC6
:1017700001E163D1160EDB502CE0FC0EDBCFE6FF5F
:10178000FD0EDBCFE6FF300EE66E0EEC1BF0E552F1
:10179000E552E552F3CF14F0F4CF15F00001F31C3D
:1017A00003E1151C01E149D1FC0EDBCFE6FFFD0E84
:1017B000DBCFE6FFDFCFE6FF0EEC1BF0E552E55294
:1017C000E552F4CF15F00001F31C03E1151C01E113
:1017D00034D1050EDBCF14F0160EDB50D880145434
:1017E00009E2050EDBCFE7FF160EDB50E75E050EC4
:1017F000E7CFDBFF300EE66E050EDBCFE6FFFC0E1B
:10180000DBCFE6FFFD0EDBCFE6FF22EC04F0E55276
:10181000E552E552E552000901E00FD1390EDB2A0D
:10182000DBCFE9FF3A0E01E3DB2ADBCFEAFF090E4B
:10183000EFCFDBFFDB5020E0FC0EDBCFE6FFFD0E41
:10184000DBCFE6FF090EDBCFE6FF0EEC1BF0E55227
:10185000E552E552F3CF14F0F4CF15F00001F31C7C
:1018600003E1151C01E1E9D0390EDB2ADBCFE9FFEA
:101870003A0EDBE3DB2AD9D7200EE66E080EDBCF6B
:10188000E6FFFC0EDBCFE6FFFD0EDBCFE6FF22EC32
:1018900004F0E552E552E552E552000901E0CDD0F1
:1018A000160EDBCFE6FF080EDBCFE6FF150EDBCF13
:1018B000E6FF050EDB50E552E724E552E724E5524A
:1018C000E724146E156AD950010FE96E000EDA2074
:1018D000EA6E1450EE261550ED22B7D0070EDB50FD
:1018E000030A01E178D0010A4EE0030A1FE0F80E76
:1018F000DBCF14F0F90EDBCF15F0020E145E000EF4
:10190000155AF80E14C0DBFFF90E15C0DBFF14C02A
:10191000E9FF15C0EAFFEE50EFCFEAFFE96E010ED6
:10192000DBCFEEFF020EDBCFEDFF8FD0010EDBCF62
:1019300016F0020EDBCF17F0186A196A17AE02D044
:1019400018681968F80EDBCF14F0F90EDBCF15F02C
:10195000020E145E000E155AF80E14C0DBFFF90ECD
:1019600015C0DBFF14C0E9FF15C0EAFFEE50EFCF52
:10197000EAFFE96E16C0EEFF17C0EEFF18C0EEFFDB
:1019800019C0EEFF62D0010EDBCF16F0020EDBCFE6
:1019900017F0186A17BE1868F80EDBCF14F0F90EAE
:1019A000DBCF15F0020E145E000E155AF80E14C0AF
:1019B000DBFFF90E15C0DBFF14C0E9FF15C0EAFF1D
:1019C000EE50EFCFEAFFE96E16C0EEFF17C0EEFF54
:1019D00018C0EEFF3AD0F80EDBCF14F0F90EDBCFD3
:1019E00015F0020E145E000E155AF80E14C0DBFF3F
:1019F000F90E15C0DBFF14C0E9FF15C0EAFFEE5079
:101A0000EFCFEAFFE96E010EDBCFEFFF1ED0FC0E39
:101A1000DBCFE6FFFD0EDBCFE6FFDFCFE6FF0EEC10
:101A20001BF0E552E552E552F3CF14F0F4CF15F078
:101A30000001F31C05E1151C03E1F368F4681AD0FA
:101A4000010EDB2A020E01E3DB2AFA0EDB2ADBCFD2
:101A5000F6FFFB0E02E267EF04F0DB2A67EF04F00B
:101A6000010EDBCF14F0020EDBCF15F014C0F3FF34
:101A700015C0F4FF3B0EE15C02E2E16AE552E16E63
:0C1A8000E552E5CFDAFFE7CFD9FF1200F6
:041A8C00896A926A67
:101A90009494929209D80001E06BE16B938E938C41
:101AA000949482847BEF15F0948E949C710EAF6EAB
:101AB000020EB06E240EAC6E900EAB6E080EB86EB9
:101AC0001200D9CFE6FFE1CFD9FF580EE126D9CFDA
:101AD000E9FFDACFEAFF0D0EEE6EEE6AEE6AEE6A0D
:101AE000EE6AEE6AEE6AEE6AEE6AEE6AEE6AEE6A36
:101AF000EE6AEE6AEE6AEE6AEE6AEE6AEE6AEE6A26
:101B0000EE6AEE6AEE6AEE6AEE6AEE6AEE6AEE6A15
:101B1000EE6AEE6AEE6AEE6AEE6AEE6AEE6AEE6A05
:101B2000EE6AEE6AEE6AEE6AD950280FE96EDACFF5
:101B3000EAFF200EEE6EEE6A110EEE6ED9502B0FFC
:101B4000E96EDACFEAFF0D0EEE6E0A0EEE6EEE6A69
:101B5000EE6AEE6A060E01013C5D03E36D50020B76
:101B600001E0A8D2010EE66ED950380FE66E000EE5
:101B7000DA20E66EC1EC12F0E552E552E5520009BA
:101B800001E198D2380EDB5079085FE1010133059D
:101B90002EE1100E3425346F000E3521356FE66AC4
:101BA00034C1E6FF35C1E6FFB3EC15F0E552E5526E
:101BB000E55234C1E6FF35C1E6FFF90EE66E330E9D
:101BC000E66ED9CFE6FFDACFE6FF6CEC1AF0146EC2
:101BD000060EE15E14500001E75108E1D9CFE6FF9F
:101BE000DACFE6FF01EC13F0E552E5522DD0100EEE
:101BF0003625366F000E3721376FE66A36C1E6FFAD
:101C000037C1E6FFB3EC15F0E552E552E55236C1B7
:101C1000E6FF37C1E6FFE80EE66E330EE66ED9CF7B
:101C2000E6FFDACFE6FF6CEC1AF0146E060EE15E0A
:101C300014500001E75108E1D9CFE6FFDACFE6FF03
:101C400001EC13F0E552E55235D2380EDB50750841
:101C50005FE1010133052EE1010E3425346F000EE2
:101C60003521356FE66A34C1E6FF35C1E6FFB3ECD6
:101C700015F0E552E552E55234C1E6FF35C1E6FF05
:101C8000D70EE66E330EE66ED9CFE6FFDACFE6FF6B
:101C90006CEC1AF0146E060EE15E14500001E75170
:101CA00008E1D9CFE6FFDACFE6FF01EC13F0E55209
:101CB000E5522DD0010E3625366F000E3721376FD5
:101CC000E66A36C1E6FF37C1E6FFB3EC15F0E55230
:101CD000E552E55236C1E6FF37C1E6FFC60EE66EB5
:101CE000330EE66ED9CFE6FFDACFE6FF6CEC1AF0E2
:101CF000146E060EE15E14500001E75108E1D9CFE1
:101D0000E6FFDACFE6FF01EC13F0E552E552D2D15F
:101D1000380EDB5069085BE1010133052CE1010E4F
:101D2000345F000E355BE66A34C1E6FF35C1E6FF7D
:101D3000B3EC15F0E552E552E55234C1E6FF35C18A
:101D4000E6FFB50EE66E330EE66ED9CFE6FFDACFCC
:101D5000E6FF6CEC1AF0146E060EE15E1450000102
:101D6000E75108E1D9CFE6FFDACFE6FF01EC13F047
:101D7000E552E5522BD0010E365F000E375BE66A66
:101D800036C1E6FF37C1E6FFB3EC15F0E552E55288
:101D9000E55236C1E6FF37C1E6FFA40EE66E330E0C
:101DA000E66ED9CFE6FFDACFE6FF6CEC1AF0146EE0
:101DB000060EE15E14500001E75108E1D9CFE6FFBD
:101DC000DACFE6FF01EC13F0E552E55273D1380E9D
:101DD000DB506F085BE1010133052CE1100E345F2D
:101DE000000E355BE66A34C1E6FF35C1E6FFB3ECB1
:101DF00015F0E552E552E55234C1E6FF35C1E6FF84
:101E0000920EE66E330EE66ED9CFE6FFDACFE6FF2E
:101E10006CEC1AF0146E060EE15E14500001E751EE
:101E200008E1D9CFE6FFDACFE6FF01EC13F0E55287
:101E3000E5522BD0100E365F000E375BE66A36C1D6
:101E4000E6FF37C1E6FFB3EC15F0E552E552E55287
:101E500036C1E6FF37C1E6FF800EE66E330EE66E52
:101E6000D9CFE6FFDACFE6FF6CEC1AF0146E060E5F
:101E7000E15E14500001E75108E1D9CFE6FFDACF67
:101E8000E6FF01EC13F0E552E55214D1380EDB50B9
:101E900070085BE1010133052CE1000E345F010E97
:101EA000355BE66A34C1E6FF35C1E6FFB3EC15F0F9
:101EB000E552E552E55234C1E6FF35C1E6FF6D0E4D
:101EC000E66E330EE66ED9CFE6FFDACFE6FF6CECB6
:101ED0001AF0146E060EE15E14500001E75108E19D
:101EE000D9CFE6FFDACFE6FF01EC13F0E552E55279
:101EF0002BD0000E365F010E375BE66A36C1E6FF77
:101F000037C1E6FFB3EC15F0E552E552E55236C1B4
:101F1000E6FF37C1E6FF5A0EE66E330EE66ED9CF06
:101F2000E6FFDACFE6FF6CEC1AF0146E060EE15E07
:101F300014500001E75108E1D9CFE6FFDACFE6FF00
:101F400001EC13F0E552E552B5D0380EDB507408C1
:101F50005BE1010133052CE1000E3427010E35232E
:101F6000E66A34C1E6FF35C1E6FFB3EC15F0E55291
:101F7000E552E55234C1E6FF35C1E6FF470EE66E95
:101F8000330EE66ED9CFE6FFDACFE6FF6CEC1AF03F
:101F9000146E060EE15E14500001E75108E1D9CF3E
:101FA000E6FFDACFE6FF01EC13F0E552E5522BD065
:101FB000000E3627010E3723E66A36C1E6FF37C129
:101FC000E6FFB3EC15F0E552E552E55236C1E6FF07
:101FD00037C1E6FF340EE66E330EE66ED9CFE6FF6C
:101FE000DACFE6FF6CEC1AF0146E060EE15E1450C8
:101FF0000001E75108E1D9CFE6FFDACFE6FF01ECB7
:1020000013F0E552E55256D0380EDB50610818E166
:10201000E66A36C1E6FF37C1E6FFB3EC15F0E552DC
:10202000E552E5520101336B0001E75108E12A0E48
:10203000E66E330EE66E3EEC13F0E552E5523AD012
:10204000380EDB507A0819E1E66A34C1E6FF35C183
:10205000E6FFB3EC15F0E552E552E5520101010E41
:10206000336F0001E75108E1200EE66E330EE66E95
:102070003EEC13F0E552E5521DD0380EDB506508FA
:1020800019E1E66A1F0EE66E050EE66EB3EC15F07A
:10209000E552E552E5520101010E336F0001E751AF
:1020A00008E1100EE66E330EE66E3EEC13F0E552DC
:1020B000E55200D0580EE15C02E2E16AE552E16EC1
:0820C000E552E7CFD9FF120041
:0820C8006C500CE16896040164
:1020D00000513C0BE842E8420D0802E10ED801D065
:1020E00046D808D0040E6C5C03E1689650D802D044
:1020F000000E02D0010E00D01200D9CFE6FFE1CFD2
:10210000D9FFE652040104BF046B0101326B2A6B54
:102110002B6B306B316BF4EC13F0DF6ADF50146E15
:10212000156A010E145C000E15581BE201012B51BB
:1021300001E017D0F76ADF34FE0BF736F66ED60EE5
:10214000F626340EF7220900F5CF14F00800F5CF7B
:1021500015F004D015C0FAFF1450F96EFBDFDF2A2A
:10216000DDD7EED8E552E552E7CFD9FF1200020ED7
:1021700001012A5D0AE1A7D8040100BD03D0C80E01
:10218000006F02D0880E006F01D020D91200040E1B
:1021900001013C5D0AE122C46EFF6E50000803E2BB
:1021A000050E3C6F02D0030E3C6F01012A0512E1BF
:1021B00013D8020E0101325D04E10401840E046FA4
:1021C00008D0040104BD03D0C80E046F02D0880EED
:1021D000046F01D0FBD81200D9CFE6FFE1CFD9FFC1
:1021E000020EE1260101080E305D000E31590EE2AB
:1021F00030C1DEFF31C1DDFF325103E1010E326F2C
:1022000004D0320502E1020E326F03D0080EDE6EFA
:10221000DD6A040104930491010EDB500413DFCF47
:1022200005F4000EDB500101305F010EDB50315B25
:10223000280E2E6F040E2F6F01013DA31ED0D9CFA3
:10224000E9FFDACFEAFFEE50ED1016E02CC1F6FF01
:102250002DC1F7FF0800F5502EC1E9FF2FC1EAFF9D
:10226000EF6E01012E2B000E2F232C2B2D23DF06CA
:10227000010E01E2DB06E3D71CD0D9CFE9FFDACFAC
:10228000EAFFEE50ED1015E02CC1E9FF2DC1EAFF89
:10229000EF502EC1E9FF2FC1EAFFEF6E01012E2B97
:1022A000000E2F232C2B2D23DF06010E01E2DB066F
:1022B000E4D7020EE15C02E2E16AE552E16EE5522A
:1022C000E7CFD9FF1200D9CFE6FFE1CFD9FF020E49
:1022D000E126030E04010015E76E010EE7CFDBFFD8
:1022E00001C4DFFFDE5001013027DD503123280E0D
:1022F0002C6F040E2D6FD9CFE9FFDACFEAFFEE5035
:10230000ED1014E02CC1E9FF2DC1EAFFEF502EC102
:10231000E9FF2FC1EAFFEF6E2E2B000E2F232C2B8F
:102320002D23DF06010E01E2DB06E5D7020EE15C9C
:1023300002E2E16AE552E16EE552E7CFD9FF120011
:102340006D9801012B510CE10401080E016F200E64
:10235000026F040E036F840E006F0401046F35D00A
:10236000040120AF22D0010130510401265D01019A
:1023700031510401275904E226C430F127C431F158
:102380002BDF0101010E2A6F0401080E016F200EE0
:10239000026F040E036F800E006F0401280E066F9B
:1023A000040E076FC80E046F10D00101020E2A6FD1
:1023B0000401056BC80E046F0401080E016F280E9E
:1023C000026F040E036FC80E006F1200D9CFE6FF34
:1023D000E1CFD9FFE652020E01012A5D36E16D50D0
:1023E000100B33E004010151146E156A080E141825
:1023F00001E115502AE100513C0BE842E8420D088A
:1024000024E10051800B21E1200E026F040E036FC6
:10241000DF6ADF50146E156A080E145C000E155842
:1024200013E2DF50EA6A280FE96E040EEA22EF5049
:10243000E66EDF50EA6A200FE96E040EEA22E552EA
:10244000E750EF6EDF2AE5D70DD001012A6B0401BA
:10245000080E016F200E026F040E036F8C0E006FCA
:0E2460000401046BE552E552E7CFD9FF1200EC
:02246E00040167
:1024700020511F0B010801E05BD02051600BE842A6
:10248000E842E842E842E842010801E051D0245124
:1024900003E0240501E04CD02151230A48E0010A61
:1024A00040E0030A30E0010A25E0240A22E0070A9E
:1024B0001FE0010A1CE0030A11E0010A01E038D024
:1024C0000101030E2B6F0101F60E2C6F000E2D6F14
:1024D00001013D930101080E306F2AD00101030E66
:1024E0002B6F0101F60E2E6F000E2F6F21D020D022
:1024F0001FD01ED00101030E2B6F0101EE0E2E6FB7
:10250000000E2F6F15D00101030E2B6F0101EE0E8F
:102510002C6F000E2D6F01013D930101070E306FEE
:1025200007D00101030E2B6F22C4F5F001D000D0BB
:1025300012000001EE6BC20EEF6F010EF06FF16B37
:10254000F26BF36B080EF46FE76BE66B1A0E726EAC
:102550001E0E736E0401300E166F040E176F400EC0
:10256000146F0401196F380E1A6F040E1B6F880E5A
:10257000186F0401780E1E6F040E1F6F400E1C6F43
:102580001200D9CFE6FFE1CFD9FF0001E66B0401CD
:1025900018BF30D0FC0EDBCF14F01951D880145482
:1025A00003E2FC0E19C4DBFF0001E66BFC0EDB50FE
:1025B000E65D19E2E651EA6A380FE96E040EEA2296
:1025C000EF50E66EE651E76EFD0EDBCFE9FFFE0E43
:1025D000DBCFEAFFE750E926000EEA22E552E7509A
:1025E000EF6EE62BE3D70401400E196F1817187D24
:1025F000880E18130001E65100D0E552E7CFD9FF4D
:102600001200D9CFE6FFE1CFD9FFE6520001E75132
:1026100001E02FD0DF6ADF2ADF50146E156AFF0E4B
:10262000141801E1155001E10BD0FD0EDBCFE9FFDD
:10263000DB2AFE0EDBCFEAFF01E3DB2AEF50EBE102
:10264000DF50146E156AD950FD0FE96EFF0EDA20C7
:10265000EA6E1450EE5E1550ED5AFD0EDBCFE8F039
:10266000FE0EDBCFE9F0DFCFECF00001ED6B010EE9
:10267000E76FE552E552E7CFD9FF1200D9CFE6FF69
:10268000E1CFD9FFE6520001E75101E030D0DF6A27
:10269000DF2ADF50146E156AFF0E141801E1155081
:1026A00001E10CD0FD0EDBCFF6FFDB2AFE0EDBCF07
:1026B000F7FF01E3DB2A0800F550EAE1DF50146E72
:1026C000156AD950FD0FE96EFF0EDA20EA6E14503C
:1026D000EE5E1550ED5AFD0EDBCFE8F0FE0EDBCFBF
:1026E000E9F0DFCFECF00001010EED6FE76FE5528E
:1026F000E552E7CFD9FF1200D9CFE6FFE1CFD9FFEE
:10270000E65204011CBF6BD0030E0001E75D01E13E
:10271000E76BE75101E163D0020EE75D06E10401DA
:102720001D6B0001030EE76F54D0E70552E1400E28
:10273000146E156AEC51145C000E155803E2400E3D
:10274000DF6E02D0ECC0DFFFDFCF1DF4DF50EC5DA9
:10275000EC6F780EEA6F040EEB6FED0515E1DF50BC
:1027600012E0E8C0F6FFE9C0F7FF0800F550EAC044
:10277000E9FFEBC0EAFFEF6EEA2B000EEB23E82B3C
:10278000E923DF06ECD713D0DF5011E0E8C0E9FF02
:10279000E9C0EAFFEF50EAC0E9FFEBC0EAFFEF6EE5
:1027A000EA2B000EEB23E82BE923DF06EDD7EC51F3
:1027B00010E104011D51146E156A400E141801E158
:1027C000155004E10001020EE76F03D00001030E73
:1027D000E76F400E04011C171C7D880E1C13E55288
:0827E000E552E7CFD9FF12001A
:0827E80004012051600BE842DE
:1027F000E842E842E842E842000901E055D02151B0
:10280000070A51E00B0A4FE0070A40E0010A2CE0FA
:102810000B0A28E0020A26E0030A22E0080A12E076
:10282000010A0EE00F0A0AE0030A01E03CD00101B0
:10283000010E2B6F0101040E3C6F36D036D834D018
:1028400090D832D00101010E2B6F01013E0E2C6F8A
:10285000010E2D6F01013D930101010E306F24D057
:10286000A8D822D0F6D820D00101010E2B6F040188
:10287000245101012C6F2D6B3F0E2C27010E2D23AF
:1028800001013D930101010E306F0ED00101010ED7
:102890002B6F04012451EA6A3F0FE96E010EEA2210
:1028A00022C4EFFF01D000D01200800E0401205D91
:1028B00057E12351030A34E0010A10E0030A01E062
:1028C0004DD00101010E2B6F01010B0E2C6F340E48
:1028D0002D6F120E0101306F316B40D00101010EDE
:1028E0002B6F04012251F66EF76AD890F636F73650
:1028F000CC0EF626340EF7220900F5CF2CF10A0093
:10290000F5CF2DF1020E0101F76A2C25F66E2D513F
:10291000F7220900F5CF30F10A00F5CF31F11ED0D2
:102920000101010E2B6F04012251F66EF76AD89057
:10293000F636F736D00EF626340EF7220900F5CF1C
:102940002CF10A00F5CF2DF12CC1F6FF2DC1F7FFB8
:102950000800F5500101306F316B00D001013D835B
:1029600012000101010E2B6F0F0EE66E710EE66E66
:102970000F0EE66EA4EC18F0E552E552E552010E9A
:10298000E66E3F0EE66E010EE66EA4EC18F0E55220
:10299000E552E55222C43EF10401225104E1010155
:1029A000050E3C6F05D00101060E3C6F99EC12F04C
:1029B00012000401286B296B040120511F0B020A2D
:1029C00016E0030A10E0010A01E035D00101010E12
:1029D0002B6F80A402D00401288101013DA102D007
:1029E0000401288328D00101010E2B6F24D001019E
:1029F000010E2B6F040124510F0B080DF350156AC3
:102A0000000F146E040E15222451800B01E0010EFC
:102A1000040DF350010114242E6F000E15202F6FAA
:102A20002EC1E9FF2FC1EAFFEF50040B03E00401C0
:102A3000010E286F00D001012B050AE10101280ECB
:102A40002C6F040E2D6F01013D930101020E306FBA
:102A500012000401220510E120511F0B00090CE1B6
:102A60000101010E2B6F030E0401215D03E1010141
:102A70003D8102D001013D91040122513BE12051F1
:102A80001F0B020837E124510F0B000933E001014D
:102A9000010E2B6F040124510F0B080DF350156A22
:102AA000000F146E040E15222451800B01E0010E5C
:102AB000040DF350010114242E6F000E15202F6F0A
:102AC000030E0401215D07E1840E2EC1E9FF2FC131
:102AD000EAFFEF6E0FD024AF07D0400E2EC1E9FF02
:102AE0002FC1EAFFEF6E06D0880E2EC1E9FF2FC17D
:062AF000EAFFEF6E120088
:0A2AF600D9CFE6FFE1CFD9FFE65289
:102B0000F28EF28C860EE66E81EC1CF0E552CC6AF9
:102B100092909292DF6ADFCF14F00A0EE76E1418DB
:102B2000E8AE02D0E73402D0E750145C12E2DFCF07
:102B3000E9FFEA6AE9BEEA68D890E936EA36000EAB
:102B4000E926010EEA22600EEE6E040EED6EDF2A1B
:102B5000E2D70101600E006F040E016FE552E552ED
:102B6000E7CFD9FF1200D9CFE6FFE1CFD9FFD95087
:102B7000FD0FE96EFF0EDA20EA6E500ED880EE549B
:102B8000080EED540AE2500EF36EFD0EF3CFDBFF9C
:102B9000080EF36EFE0EF3CFDBFFFD0EDBCF14F05D
:102BA000FE0EDBCF15F0200E145C020E15580AE263
:102BB000200EF36EFD0EF3CFDBFF020EF36EFE0E62
:102BC000F3CFDBFFFC0EDBCFE9FFEA6AE9BEEA6880
:102BD000D890E936EA36000EE926010EEA22FD0E0B
:102BE000DBCFEEFFFE0EDBCFEDFFE552E7CFD9FFE7
:102BF0001200D9CFE6FFE1CFD9FFFE0EDBCFE9FF10
:102C0000EA6AE9BEEA68D890E936EA36000EE926B3
:102C1000010EEA22EECF14F0EFCF15F014C0F3FF4F
:102C200015C0F4FF00D0E552E7CFD9FF12009EA2F5
:102C300099D09E92CC6A01014307000EE76E4319BA
:102C4000E8AE02D0433503D0E750D880435501E2C7
:102C500089D0445138E1898001C114F0156A14C04B
:102C600043F144C1E9FFEA6AE9BEEA68D890E9366F
:102C7000EA36000EE926010EEA22EECF14F0EFCF7D
:102C800015F01450FF0B1BE044C1E9FFEA6AE9BEEE
:102C9000EA68D890E936EA36000EE926010EEA2203
:102CA000EECF14F0EFCF15F0FF0E1416000E151630
:102CB000D8801456010E15561450CC6E02D0CC6A32
:102CC0004307442B4FD0440549E18990898244C190
:102CD000E9FFEA6AE9BEEA68D890E936EA36000E0A
:102CE000E926010EEA22EECF14F0EFCF15F015C061
:102CF00014F0156A14C043F144C1E9FFEA6AE9BE61
:102D0000EA68D890E936EA36000EE926010EEA2292
:102D1000EECF14F0EFCF15F01450FF0B1BE044C1C1
:102D2000E9FFEA6AE9BEEA68D890E936EA36000EB9
:102D3000E926010EEA22EECF14F0EFCF15F0FF0ED8
:102D40001416000E1516D8801456010E1556145080
:102D5000CC6E02D0CC6A4307442B04D0446B8992DA
:062D6000190E436F120082
:0A2D6600DACFE4FFE2CFDAFFE9CF95
:102D7000E4FFEACFE4FFF6CFE4FFF7CFE4FFF5CFBF
:102D8000E4FFF3CFE4FFF4CFE4FFFACFE4FF00EE7B
:102D900000F0140EE80403E3EECFE4FFFBD700EEEF
:102DA00014F0060EE80403E3EECFE4FFFBD7E6528F
:102DB000D9CFE6FFE1CFD9FF020EE126F350DF6E57
:102DC000010EF4CFDBFFF2A40BD0F2945F0EE66E9F
:102DD000730EE66E65EC1CF0E552E5520001FE2B29
:102DE0009EA29FD09E92CC6A01014307000EE76E1F
:102DF0004319E8AE02D0433503D0E750D88043559D
:102E000001E28FD0010144513AE1898001C11AF0F9
:102E10001B6A1AC043F144C1E9FFEA6AE9BEEA68E5
:102E2000D890E936EA36000EE926010EEA22EECF06
:102E30001AF0EFCF1BF01A50FF0B1BE044C1E9FF63
:102E4000EA6AE9BEEA68D890E936EA36000EE92671
:102E5000010EEA22EECF1AF0EFCF1BF0FF0E1A168A
:102E6000000E1B16D8801A56010E1B561A50CC6E37
:102E700003D0CC6A010143070101442B52D0440521
:102E80004BE18990898244C1E9FFEA6AE9BEEA68B8
:102E9000D890E936EA36000EE926010EEA22EECF96
:102EA0001AF0EFCF1BF01BC01AF01B6A1AC043F1D7
:102EB00044C1E9FFEA6AE9BEEA68D890E936EA3631
:102EC000000EE926010EEA22EECF1AF0EFCF1BF03A
:102ED0001A50FF0B1BE044C1E9FFEA6AE9BEEA6849
:102EE000D890E936EA36000EE926010EEA22EECF46
:102EF0001AF0EFCF1BF0FF0E1A16000E1B16D8802B
:102F00001A56010E1B561A50CC6E03D0CC6A010122
:102F100043070101442B05D0446B89920101190E2E
:102F2000436FDF50F36E010EDB50F46E020EE15C76
:102F300002E2E16AE552E16EE552E7CFD9FFE552E0
:102F400000EE19F0060EE80403E3E5CFEDFFFBD732
:102F500000EE13F0140EE80403E3E5CFEDFFFBD71A
:102F6000E5CFFAFFE5CFF4FFE5CFF3FFE5CFF5FFBF
:102F7000E5CFF7FFE5CFF6FFE5CFEAFFE5CFE9FFC5
:102F8000E5CFDAFF110005D811D861EC0DF0FCD7C0
:102F900012000F0EC1129284140E6F6E01013C6B71
:102FA00001013D6B01013E6B46EF0DF0DEEC17F0C9
:0C2FB0006FBE02D0FDEC17F07CEF13F0B8
:042FBC006DA60FD817
:102FC00002D06DB613D801013C0508E16DBA06D0F8
:102FD000686A696A69806988020E3C6F12006D6ACE
:102FE000696A6D860101010E3C6F12006D6A696AA3
:102FF00001013C6B1200F6EF17F001013C5101E1B9
:1030000045D06850040B04E06950040B01E047D838
:103010006DB23CD06850010B04E06950010B01E037
:103020006BD86850100B04E06950100B01E02FD8EA
:103030006850400B04E06950400B01E049D86850EB
:10304000200B04E06950200B01E044D86850020BCB
:1030500004E06950020B01E04DD8030E01013C5D14
:1030600001E214D00101406B040E405D0FE2685094
:10307000080B0BE06950080B08E064EC10F0000945
:1030800001E168960101402BEFD700D0120069845E
:1030900068986D82A19AA08A0300A09A12006D928E
:1030A000699468A402D06894FCD7120001013DA184
:1030B0000ED06D926D840101080E416F070E426FB4
:1030C0004107000E425B41514211FAE16D9412003A
:1030D000689C120070A00CD0800E0401005D07E116
:1030E000840E0401045D03E104018C0E006F7090F6
:1030F000689A12006A6A12006A6A686A9F0E6B6EAA
:103100007B0E696E6E6A0F0EE66E710EE66E0F0E26
:10311000E66E1AD8E552E552E552160E706E68A6B4
:1031200008D06896000000000000000000000000C9
:10313000F6D76D98E6EC11F001013D9101013E6B6F
:103140000101030E3C6F1200D9CFE6FFE1CFD9FF9A
:10315000FD0EDBCFE9FFFE0EDBCFEAFFFC0EDB50FE
:1031600004E0EE6AFC0EDB06F9D7E552E7CFD9FFA3
:0231700012004B
:0E3172008A849394E66A030EE66E020EE66E01
:1031800088EC1BF0E552E552E5520101870E146F01
:103190000C0E156FDDEF18F08A94F0EC1CF00101B5
:1031A000156FF0EC1CF00101146F8A8414B502D085
:1031B000000E02D0010E00D01200D9CFE6FFE1CF01
:1031C000D9FF030EE12614C114F015C115F0D890F3
:1031D00015321432E804FBE114C0DEFF15C0DDFF38
:1031E000D950010FE96EDACFEAFFEF50100B08E17A
:1031F000010EDB9ADB9CDB9E01012B0E166F16D0B5
:10320000010EDB8ADB8CDB8E01012D0E166FDECF0B
:1032100014F0DDCF15F0FF0E141A151A14C0DEFFDE
:1032200015C0DDFFDF2A010E01E3DB2ADECF14F03B
:10323000DDCF15F00A0E1502F3CF15F01402F3CF0F
:1032400014F0F4501526040ED89015321432E80408
:10325000FBE114C0DEFF15C0DDFF040EF36E020EAD
:10326000F3CFDBFFDB50000833E2DECF14F0DDCF1D
:1032700015F00A0E0B6E0C6A14C006F015C007F0AC
:103280009CEC1CF002C014F003C015F00F0E1414D7
:103290003009E66E020EDB50EA6A160FE96E010E87
:1032A000EA22E552E750EF6ED9CFE9FFDACFEAFF25
:1032B0000A0E0B6E0C6AEECF06F0EDCF07F09CEC19
:1032C0001CF006C0EEFF07C0EDFF020EDB06CAD7FA
:1032D000300E0101175D07E1200E176F300E185DEB
:1032E00002E1200E186F1AC11BF12E0E1A6FF80E94
:1032F0001C6F430E1D6F0D0E1E6F1F6B030EE15CE6
:1033000002E2E16AE552E16EE552E7CFD9FF120031
:103310000D454E545245204F55564552540D0A0006
:103320000D4F55564552540D0A000D4645524D4518
:10333000450D0A004645524D4545202B3130302081
:103340003A2025780D0A004F5556455254202B310E
:103350003030203A2025780D0A004645524D45452B
:10336000202D313030203A2025780D0A004F555657
:10337000455254202D313030203A2025780D0A0056
:103380004645524D4545202D3130203A2025780DB7
:103390000A004F5556455254202D3130203A2025F1
:1033A000780D0A004645524D4545202D31203A20E2
:1033B00025780D0A004F5556455254202D31203A9C
:1033C0002025780D0A004645524D4545202B3120D9
:1033D0003A2025780D0A004F5556455254202B317E
:1033E000203A2025780D0A004645524D45202B31C4
:1033F00030203A2025780D0A004F5556455254206A
:0B3400002B3130203A2025780D0A0007
:05340B001201000202A5
:10341000000008D8040A000100010200010902436B
:1034200000020100C032090400000102020100058F
:1034300024001001042402020524060001052401D1
:1034400000010705820308000209040100020A00C6
:10345000000007050302400000070583024000004A
:103460000403090434034D006900630072006F0017
:10347000630068006900700020005400650063006C
:1034800068006E006F006C006F006700790020001C
:1034900049006E0063002E003403430044004300E3
:1034A0002000520053002D00320033003200200073
:1034B00045006D0075006C006100740069006F00CC
:1034C0006E002000440065006D006F001D341D3447
:0834D0006034643498346E246A
:0834D800D9CFE6FFDACFE6FFD1
:1034E000E1CFD9FFE2CFDAFFE652E652E652E652EA
:1034F000D950FA0F146EFF0EDA20156E020E14C0AA
:10350000DBFF030E15C0DBFF020EDBCFE6FF030E71
:10351000DBCFE6FFFA0EDBCFE6FFFB0EDBCFE6FFED
:10352000D950FC0FE66EFF0EDA20E66E51EC04F087
:10353000146E060EE15C02E2E16AE552E16E14509F
:10354000F3CFDEFFF4CFDDFFFC0EDBCFE9FFFD0E96
:10355000DBCFEAFFEF6ADECF14F0DDCF15F014C049
:10356000F3FF15C0F4FF040EE15C02E2E16AE552EC
:0E357000E16EE552E5CFDAFFE7CFD9FF12009A
:02357E002A0E13
:10358000F66E080EF76E000EF86E01010900F55098
:10359000256F0900F550266F03E1256701D03DD066
:1035A0000900F550206F0900F550216F0900F55012
:1035B000226F09000900F550E96E0900F550EA6E26
:1035C000090009000900F550236F0900F550246F28
:1035D00009000900F6CF27F1F7CF28F1F8CF29F13C
:1035E00020C1F6FF21C1F7FF22C1F8FF01012353DB
:1035F00002E1245307E00900F550EE6E2307F8E2DC
:103600002407F9D727C1F6FF28C1F7FF29C1F8FF22
:0C36100001012507000E265BBFD7120049
:04361C00D9CFE6FF1D
:10362000DACFE6FFE1CFD9FFE2CFDAFFFB0EDBCF47
:1036300014F0FC0EDBCF15F00001800E15141AE11A
:10364000FB0EDBCFE9FFFC0EDBCFEAFFEECFF3FF93
:10365000EDCFF4FFEE2A000EEF22F3CFE9FFF4CF17
:10366000EAFFFD0EDBCFEFFFEF50156AF36E15C0DA
:10367000F4FF10D0FB0EDB50FE0806E1FD0EDBCFA1
:10368000E6FFD2EC1CF005D0FD0EDBCFE6FFF5EC3B
:103690001CF0E552E552E5CFDAFFE7CFD9FF120083
:1036A00004500902F3CF00F0F4CF01F00A02F35006
:1036B0000126000EF420026E04500B02F350022685
:1036C000000EF420036E04500C02F3500326055044
:1036D0000902F3500126F4500222000E0322055085
:1036E0000A02F3500226F450032205500B02F35055
:1036F000032606500902F3500226F4500322065016
:103700000A02F350032607500902F3500326120061
:10371000D9CFE6FFDACFE6FFE1CFD9FFE2CFDAFF7C
:103720003F0EC716C66AFD0EDB50C612FB0EDB50FD
:10373000C712FC0EDB50030A09E0010A04E0020A8A
:1037400006E1C78C04D0C78CC68801D0C688FD0EA0
:10375000DB50050A03E0010A03E1928A938201D05B
:1037600093929380949EC68AE552E5CFDAFFE7CF25
:04377000D9FF12006B
:0C377400FE0EE3CFE9FFFF0EE3CFEAFFFB
:10378000F36AF46AEE5203E0F34AF42AFBD712001C
:10379000FF0EE3CFF7FFE552FF0EE3CFF6FFE55252
:1037A000E56AE66AE66AE66A0900F55209E0FD0E96
:1037B000E32A05E1FE0EE32A02E1FF0EE32AF4D735
:1037C000FD0EE3CF05F0FE0EE3CF06F0FF0EE3CFD4
:0437D00007F01200EC
:0C37D40007C013F006C012F006500B02F4
:1037E000F4CF05F0F3CF04F007500C02F4CF07F04C
:1037F000F3CF06F00B02F3500526F4500622E86AD8
:10380000072212500C02F3500526F4500622E86AF3
:1038100007220CAE10EF1CF01250065E1350075A30
:0E38200013AE000C0B50065E0C50075A000C45
:02382E00D9CFF0
:10383000E6FFE1CFD9FFA69EA69CFE0EDB50A96E47
:10384000FD0EDB50A86EA684550EA76EAA0EA76EBD
:10385000A682A6A202D00000FCD7E552E7CFD9FF8E
:103860001200D9CFE6FFE1CFD9FFA69EA69CFE0E9F
:10387000DB50A96EA680A85000D0E552E7CFD9FF53
:02388000120034
:0E388200036A026A016A006A200EE76ED8909F
:10389000043605360636073600360136023603365C
:1038A0000950005C0A5001580B5002580C50035844
:1038B00009E30950005E0A50015A0B50025A0C509D
:0A38C000035A042AE72EE4D7120091
:0638CA00D9CFE6FFDACFC2
:1038D000E6FFE1CFD9FFE2CFDAFFE652E652FC0E77
:1038E000DBCFDEFFDBCFDDFF010EDB50D76EDF501D
:1038F000D66EE552E552E552E5CFDAFFE7CFD9FFC4
:023900001200B3
:0E390200D9CFE6FFDACFE6FFE1CFD9FFE2CF63
:10391000DAFFFD0EDB50FB0BCA6ECC6A9E92FD0EE9
:10392000DBAE02D09D8201D09D92CA84E552E5CFE4
:08393000DAFFE7CFD9FF120016
:08393800036A026A100EE76E3B
:10394000D89006360736023603360B50025C0C5010
:10395000035805E30B50025E0C50035A062AE72E6B
:04396000F0D712008A
:0C396400F36AF46AFF0EE124E96EFF0E26
:10397000E220EA6EED6607D02F0EEF6404D03A0E17
:08398000EF6001D0F32A1200F0
:0839880013EE00F023EE00F045
:10399000F86A0F9CBFEC1AF0F6EC1CF0C3EC17F0C1
:0439A000FBD712003F
:0C39A400FF0EE350ACBA04D0AF6AAB8E4B
:1039B000AC8A949CACA2FED7AD6EF36EF46A120092
:1039C0003031323334353637383961626364656695
:0139D00000F6
:0E39D20000EE00F00F0EEE6AEA62FDD7120062
:0A39E000C96AC7A0FED7C950120043
:0239EA001200C9
:0239EC001200C7
:0239EE0000FED9
:0739F00006EF0400000100D6
:0239F7000100CD
:00000001FF
