:020000040000FA
:06000000DEEF14F0120017
:06080000DEEF14F012000F
:04080800B0EF0FF04E
:020818001200CC
:06082A0002002E2A00006E
:100830004C010000020000002A2A000043010000D1
:0408400004000000B0
:0C084400896A926A9494929228D800016C
:10085000E06BE16B938E938C94948284030E9310DF
:10086000936E080EC66E3B0EC86EC68A9F0EE66E6D
:1008700091EC14F0E552F28EF28C0101030E4B6FF5
:100880005F0EE66E730EE66E75EC14F0E552E552FF
:1008900001014A6B0001E26BF06BE36B1200948E76
:1008A000949C710EAF6E020EB06E240EAC6E900E64
:1008B000AB6E080EB86E1200C5809EA6FED79E963F
:1008C000A60EC96E9EA6FED79E96C5AC0CD00101A1
:1008D000015108E1390EE66E250EE66E89EC0CF04A
:1008E000E552E5523BD0FE0EC96E9EA6FED79E96FF
:1008F000C5AC11D00101015108E12B0EE66E250EA9
:10090000E66E89EC0CF0E552E552C5849EA6FED752
:100910009E9628D000D0040EC96E9EA6FED79E9645
:10092000C5AC11D00101015108E11C0EE66E250E87
:10093000E66E89EC0CF0E552E552C5849EA6FED722
:100940009E9610D00BD00101015108E1110EE66E08
:10095000250EE66E89EC0CF0E552E552C5849EA6A4
:10096000FED79E961200D9CFE6FFE1CFD9FF020E47
:10097000E126C580C5B0FED79E96A40EC96EC6AE50
:100980000BD00101015108E1040EE66E250EE66E62
:1009900089EC0CF0E552E552C750040B03E19E5080
:1009A000080B01E1F9D79E96C5AC11D001010151A8
:1009B00008E1F70EE66E240EE66E89EC0CF0E552C7
:1009C000E552C5849EA6FED79E9695D000D0C96AF2
:1009D000C6AE0BD00101015108E1EA0EE66E240E0D
:1009E000E66E89EC0CF0E552E552C750040B03E1CA
:1009F0009E50080B01E1F9D79E96C5AC11D00101BC
:100A0000015108E1DD0EE66E240EE66E89EC0CF075
:100A1000E552E552C5849EA6FED79E966CD000D0C6
:100A2000C584C5B4FED79E96780EE66EECEC14F045
:100A3000E552C580C5B0FED79E96A50EC96EC6AE5E
:100A40000BD00101015108E1D00EE66E240EE66ED6
:100A500089EC0CF0E552E5529EA6FED79E96C5ACF9
:100A600011D00101015108E1C30EE66E240EE66EBD
:100A700089EC0CF0E552E552C5849EA6FED79E9601
:100A80003AD035D0DF6A010EDB6AC586C5B6FED71F
:100A90009E96DF50E76EFD0EDBCFE9FFFE0EDBCF4B
:100AA000EAFFE750E926000EEA22C9CFEFFFC6AC05
:100AB0000BD00101015108E1B10EE66E240EE66E85
:100AC00089EC0CF0E552E552FF0EC95C02E1010E23
:100AD000DB2ADF2A060EDF5C02E2C59A01D0C58A56
:100AE000C588C5B8FED79E96060EDF5CCEE3C584EA
:100AF000C5B4FED79E96020EE15C02E2E16AE552C1
:100B0000E16EE552E7CFD9FF1200D9CFE6FFE1CF82
:100B1000D9FF060EE126300EF36E020EF3CFDBFF97
:100B2000300EF36E030EF3CFDBFF300EF36E040EC8
:100B3000F3CFDBFF300EF36E050EF3CFDBFFDF6A82
:100B4000010EDB6ADF50E76EFD0EDBCFE9FFFE0E24
:100B5000DBCFEAFFE750E926000EEA22EF5002E081
:100B6000DF2AF0D7FC0EDB502BE00A0E126E12C00B
:100B70000EF0FC0EDBCF09F0FAEC14F00550300F4C
:100B8000E66ED950020F106EDACF11F0010EDB5075
:100B90000F011024E96E000E1120EA6EE552E750B5
:100BA000EF6E0A0E106E10C00EF0FC0EDBCF09F0D7
:100BB000FAEC14F0FC0E09C0DBFF010EDB2AD2D7E1
:100BC000010EDB5010E1DF50E76EFD0EDBCFE9FFD9
:100BD000FE0EDBCFEAFFE750E926000EEA22020E06
:100BE000DBCFEFFFDF2A010EDB5022E0010EDB0638
:100BF000D950020F106EDACF11F0010EDB500F0149
:100C00001024E96E000E1120EA6EEF50E66EDF5000
:100C1000E76EFD0EDBCFE9FFFE0EDBCFEAFFE7500C
:100C2000E926000EEA22E552E750EF6EDF2ADBD715
:100C3000DF50E76EFD0EDBCFE9FFFE0EDBCFEAFFF4
:100C4000E750E926000EEA22EF6A060EE15C02E2B6
:100C5000E16AE552E16EE552E7CFD9FF1200D9CF44
:100C6000E6FFE1CFD9FF020EE126DF6A010EDB6A63
:100C7000DF50E76EFD0EDBCFE9FFFE0EDBCFEAFFB4
:100C8000E750E926000EEA22EF5002E0DF2AF0D713
:100C9000010EDB50E76EFB0EDBCFE9FFFC0EDBCF76
:100CA000EAFFE750E926000EEA22EF5023E0010EAA
:100CB000DB50E76EFB0EDBCFE9FFFC0EDBCFEAFF7C
:100CC000E750E926000EEA22EF50E66E010EDB50F7
:100CD000DF24E76EFD0EDBCFE9FFFE0EDBCFEAFF80
:100CE000E750E926000EEA22E552E750EF6E010ECA
:100CF000DB2ACED7010EDB50DF24E76EFD0EDBCF03
:100D0000E9FFFE0EDBCFEAFFE750E926000EEA22FC
:100D1000EF6A020EE15C02E2E16AE552E16EE55241
:100D2000E7CFD9FF1200D9CFE6FFE1CFD9FF700E90
:100D3000E126D9CFE9FFDACFEAFF0D0EEE6EEE6ABB
:100D4000EE6AEE6AEE6AEE6AEE6AEE6AEE6AEE6AE3
:100D5000EE6AEE6AEE6AEE6AEE6AEE6AEE6AEE6AD3
:100D6000EE6AEE6AEE6AEE6AEE6AEE6AEE6AEE6AC3
:100D7000EE6AEE6AEE6AEE6AEE6AEE6AEE6AEE6AB3
:100D8000EE6AEE6AEE6AEE6AEE6AEE6AD950280FF3
:100D9000E96EDACFEAFF200EEE6EEE6A110EEE6E0D
:100DA000D9502B0FE96EDACFEAFF0D0EEE6E0A0E68
:100DB000EE6EEE6AEE6AEE6A060E01013F5D03E337
:100DC0006D50020B01E0C1D20001E20501E0CED17D
:100DD000010E01014A5D01E2C9D180820001F005E6
:100DE00001E095D0E46BE56BE66BE76B01014A6BC4
:100DF0000001F36BF151F21104E1E86BE96BEA6B6E
:100E0000EB6BD950300FE66E000EDA20E66EABDDEC
:100E1000E552E552330EDB50FC0B146E156A060EDC
:100E2000D89014361536E804FBE1300EDB50000193
:100E30001410106E15C011F0126A136A11AE02D0B0
:100E40001268136810500001E8271150E92312506E
:100E5000EA231350EB23F12B000EF223D890F2512A
:100E600004E6D00EF15D070EF25922E3E8C0ECF083
:100E7000E9C0EDF0EAC0EEF0EBC0EFF0F40E0B6E5F
:100E8000010E0C6E0D6A0E6AECC006F0EDC007F0A4
:100E9000EEC008F0EFC009F051EC14F006C0ECF021
:100EA00007C0EDF008C0EEF009C0EFF00001F06BF4
:100EB0000D0EF36E5C0EF3CFDBFF0A0EF36E5D0ECC
:100EC000F3CFDBFF040EE66EE66AE80EE66E000E78
:100ED000E66ED950580FE66E000EDA20E66EFCEC96
:100EE00013F0106E060EE15E1050010101510EE18B
:100EF0000101D950580F026FDACF03F10101060E3C
:100F0000066F0101076B0101010E016F2ED1D9504F
:100F1000300FE66E000EDA20E66E25DDE552E55272
:100F2000330EDB50020B02083FE1330EDB50186E2C
:100F3000196AFC0E1816000E1916060ED8901836EF
:100F40001936E804FBE1300EDB5000011810146E76
:100F500019C015F0166A176A15AE02D01668176820
:100F6000020E1F0B07E0D8901436153616361736CA
:100F7000E806F9E10001EC51145C106EED511558D2
:100F8000116EEE511658126EEF511758136E600E17
:100F900010C0DBFF610E11C0DBFF620E12C0DBFF71
:100FA000630E13C0DBFF46D0330EDB50186E196A98
:100FB000FC0E1816000E1916060ED89018361936A3
:100FC000E804FBE1300EDB5000011810146E19C06C
:100FD00015F0166A176A15AE02D016681768020E69
:100FE0001F0B07E0D8901436153616361736E8066C
:100FF000F9E10001EC51145C106EED511558116EC1
:10100000EE511658126EEF511758136E020ED8900B
:101010001036113612361336E806F9E1600E10C0AC
:10102000DBFF610E11C0DBFF620E12C0DBFF630E3F
:1010300013C0DBFF4AC110F0116A126A136A10C0B4
:1010400006F011C007F012C008F013C009F0600EDE
:10105000DBCF0BF0610EDBCF0CF0620EDBCF0DF0BF
:10106000630EDBCF0EF05EEC13F002500001E427BC
:101070000350E5230450E6230550E72301014A51BC
:101080000001F3270F0EE76EF319E8AE02D0F33537
:1010900003D0E750D880F35566E2E4C006F0E5C01F
:1010A00007F0E6C008F0E7C009F0400E0B6E060E30
:1010B0000C6E0D6A0E6A96EC13F006C010F007C0B5
:1010C00011F0600E1026040E1122126A136A11AE7E
:1010D00002D012681368640E10C0DBFF650E11C0E9
:1010E000DBFF660E12C0DBFF670E13C0DBFFE66A94
:1010F000640EDBCFE6FF650EDBCFE6FFFBEC0EF008
:10110000E552E552E5520001F36B0D0EF36E6C0EE5
:10111000F3CFDBFF0A0EF36E6D0EF3CFDBFF040E91
:10112000E66EE66AE40EE66E000EE66ED950680FD3
:10113000E66E000EDA20E66EFCEC13F0106E060E82
:10114000E15E1050010101510EE10101D950680F1B
:10115000026FDACF03F10101060E066F0101076B82
:101160000101010E016F01014A6B8092010EE66ED2
:10117000D950380FE66E000EDA20E66E0CEC0CF05B
:10118000E552E552E552000901E1DFD0380EDB50AF
:10119000690805E15CEC04F0C6EC0EF0D6D0380E20
:1011A000DB50720860E1D950300FE66E000EDA2095
:1011B000E66EB3EC04F0E552E5526E0EDB6ADBCF6F
:1011C00010F0060EE76E1018E8AE02D0E73402D039
:1011D000E750105C2DE2D950300F106EDACF11F0CD
:1011E0006E0EDBCF12F0136A12BE13681050122479
:1011F000E96E11501320EA6EEF50E66ED9CFE6FF8C
:10120000DACFE6FF82DCE552E552E552D950280FED
:10121000E66E000EDA20E66ED9CFE6FFDACFE6FF03
:101220001EDDE552E552E552E5526E0EDB2AC7D7C8
:10123000D9502B0FE66E000EDA20E66ED9CFE6FF0E
:10124000DACFE6FF0CDDE552E552E552E552010149
:10125000015108E1D9CFE6FFDACFE6FF4CEC0CF004
:10126000E552E55272D0380EDB506C0812E10001F5
:10127000010EE26FF06FF16BF26B0101015108E1B9
:101280009C0EE66E240EE66E89EC0CF0E552E552FB
:101290005CD0380EDB5074084DE1010EF36E6F0E1A
:1012A000F3CFDBFF01014B6BD950380F116EDACF52
:1012B00012F06F0EDBCF13F0146A13BE14681150D6
:1012C0001324E96E12501420EA6EEFCF10F0300EA6
:1012D000105C20E3380EDB5039081CE3D950380F7E
:1012E000116EDACF12F06F0EDBCF13F0146A13BE5B
:1012F000146811501324E96E12501420EA6EEFCFD7
:1013000010F00A0E4B03F3501024D00F4B6F6F0EEA
:10131000DB2ACAD74B5102E1030E4B6F0101015189
:1013200008E1880EE66E240EE66E89EC0CF0E552BC
:10133000E5520BD00101015108E1700EE66E240E5A
:10134000E66E89EC0CF0E552E552700EE15C02E2CB
:0E135000E16AE552E16EE552E7CFD9FF1200E7
:02135E006C50D1
:101360000CE16896040100513C0BE842E8420D088C
:1013700002E10ED801D046D808D0040E6C5C03E11F
:10138000689650D802D0000E02D0010E00D0120094
:10139000D9CFE6FFE1CFD9FFE652040104BF046BC9
:1013A00001013E6B366B376B3C6B3D6B3FEC0DF0D8
:1013B000DF6ADF50106E116A010E105C000E1158CA
:1013C0001BE20101375101E017D0F76ADF34FE0B51
:1013D000F736F66E1C0EF626260EF7220900F5CF1C
:1013E00010F00800F5CF11F004D011C0FAFF105032
:1013F000F96EFBDFDF2ADDD7EED8E552E552E7CF05
:10140000D9FF1200020E0101365D0AE1A7D80401DE
:1014100000BD03D0C80E006F02D0880E006F01D04F
:1014200020D91200040E01013F5D0AE122C46EFFC3
:101430006E50000803E2050E3F6F02D0030E3F6FAF
:101440000101360512E113D8020E01013E5D04E1EF
:101450000401840E046F08D0040104BD03D0C80E3B
:10146000046F02D0880E046F01D0FBD81200D9CFD0
:10147000E6FFE1CFD9FF020EE1260101080E3C5D37
:10148000000E3D590EE23CC1DEFF3DC1DDFF3E5185
:1014900003E1010E3E6F04D03E0502E1020E3E6FF5
:1014A00003D0080EDE6EDD6A040104930491010E80
:1014B000DB500413DFCF05F4000EDB5001013C5F6D
:1014C000010EDB503D5B280E3A6F040E3B6F0101AD
:1014D00040A31ED0D9CFE9FFDACFEAFFEE50ED10DE
:1014E00016E038C1F6FF39C1F7FF0800F5503AC1E0
:1014F000E9FF3BC1EAFFEF6E01013A2B000E3B23EF
:10150000382B3923DF06010E01E2DB06E3D71CD0BE
:10151000D9CFE9FFDACFEAFFEE50ED1015E038C180
:10152000E9FF39C1EAFFEF503AC1E9FF3BC1EAFFE9
:10153000EF6E01013A2B000E3B23382B3923DF06D7
:10154000010E01E2DB06E4D7020EE15C02E2E16A91
:10155000E552E16EE552E7CFD9FF1200D9CFE6FFA1
:10156000E1CFD9FF020EE126030E04010015E76E5C
:10157000010EE7CFDBFF01C4DFFFDE5001013C2796
:10158000DD503D23280E386F040E396FD9CFE9FFA7
:10159000DACFEAFFEE50ED1014E038C1E9FF39C1AF
:1015A000EAFFEF503AC1E9FF3BC1EAFFEF6E3A2B89
:1015B000000E3B23382B3923DF06010E01E2DB0648
:1015C000E5D7020EE15C02E2E16AE552E16EE55226
:1015D000E7CFD9FF12006D98010137510CE10401EA
:1015E000080E016F200E026F040E036F840E006F51
:1015F0000401046F35D0040120AF22D001013C5119
:101600000401265D01013D510401275904E226C46D
:101610003CF127C43DF12BDF0101010E366F0401BF
:10162000080E016F200E026F040E036F800E006F14
:101630000401280E066F040E076FC80E046F10D049
:101640000101020E366F0401056BC80E046F040120
:10165000080E016F280E026F040E036FC80E006F94
:101660001200D9CFE6FFE1CFD9FFE652020E010109
:10167000365D36E16D50100B33E004010151106E00
:10168000116A080E101801E111502AE100513C0BBB
:10169000E842E8420D0824E10051800B21E1200ED0
:1016A000026F040E036FDF6ADF50106E116A080EBE
:1016B000105C000E115813E2DF50EA6A280FE96E41
:1016C000040EEA22EF50E66EDF50EA6A200FE96E60
:1016D000040EEA22E552E750EF6EDF2AE5D70DD07F
:1016E0000101366B0401080E016F200E026F040E1B
:1016F000036F8C0E006F0401046BE552E552E7CFD7
:04170000D9FF1200FB
:0C170400040120511F0B010801E05BD024
:101710002051600BE842E842E842E842E842010812
:1017200001E051D0245103E0240501E04CD02151C7
:10173000230A48E0010A40E0030A30E0010A25E0FC
:10174000240A22E0070A1FE0010A1CE0030A11E054
:10175000010A01E038D00101030E376F0101100EBC
:10176000386F010E396F010140930101080E3C6F83
:101770002AD00101030E376F0101100E3A6F010EDE
:101780003B6F21D020D01FD01ED00101030E376F38
:101790000101080E3A6F010E3B6F15D00101030ED7
:1017A000376F0101080E386F010E396F0101409348
:1017B0000101070E3C6F07D00101030E376F22C4F1
:1017C0000FF101D000D012000101086BC20E096FA9
:1017D000010E0A6F0B6B0C6B0D6B080E0E6F016B1D
:1017E000006B1A0E726E1E0E736E0401300E166FB1
:1017F000040E176F400E146F0401196F380E1A6F24
:10180000040E1B6F880E186F0401780E1E6F040EF5
:101810001F6F400E1C6F1200D9CFE6FFE1CFD9FF3A
:101820000101006B040118BF30D0FC0EDBCF10F0BB
:101830001951D880105403E2FC0E19C4DBFF0101DA
:10184000006BFC0EDB50005D19E20051EA6A380FB4
:10185000E96E040EEA22EF50E66E0051E76EFD0ECF
:10186000DBCFE9FFFE0EDBCFEAFFE750E926000EF3
:10187000EA22E552E750EF6E002BE3D70401400E59
:10188000196F1817187D880E18130101005100D028
:10189000E552E7CFD9FF1200D9CFE6FFE1CFD9FF5C
:1018A000E6520101015101E02FD0DF6ADF2ADF504B
:1018B000106E116AFF0E101801E1115001E10BD0FA
:1018C000FD0EDBCFE9FFDB2AFE0EDBCFEAFF01E3F3
:1018D000DB2AEF50EBE1DF50106E116AD950FD0F9B
:1018E000E96EFF0EDA20EA6E1050EE5E1150ED5AEE
:1018F000FD0EDBCF02F1FE0EDBCF03F1DFCF06F1F1
:101900000101076B010E016FE552E552E7CFD9FFE8
:101910001200D9CFE6FFE1CFD9FFE6520101015114
:1019200001E030D0DF6ADF2ADF50106E116AFF0E4F
:10193000101801E1115001E10CD0FD0EDBCFF6FFD4
:10194000DB2AFE0EDBCFF7FF01E3DB2A0800F550B0
:10195000EAE1DF50106E116AD950FD0FE96EFF0EFB
:10196000DA20EA6E1050EE5E1150ED5AFD0EDBCF1C
:1019700002F1FE0EDBCF03F1DFCF06F10101010E14
:10198000076F016FE552E552E7CFD9FF1200D9CFBB
:10199000E6FFE1CFD9FFE65204011CBF6BD0030E76
:1019A0000101015D01E1016B015101E163D0020E12
:1019B000015D06E104011D6B0101030E016F54D0AE
:1019C000010552E1400E106E116A0651105C000EC6
:1019D000115803E2400EDF6E02D006C1DFFFDFCFF9
:1019E0001DF4DF50065D066F780E046F040E056F60
:1019F000070515E1DF5012E002C1F6FF03C1F7FF52
:101A00000800F55004C1E9FF05C1EAFFEF6E042BA1
:101A1000000E0523022B0323DF06ECD713D0DF5083
:101A200011E002C1E9FF03C1EAFFEF5004C1E9FF81
:101A300005C1EAFFEF6E042B000E0523022B0323E2
:101A4000DF06EDD7065110E104011D51106E116A39
:101A5000400E101801E1115004E10101020E016F66
:101A600003D00101030E016F400E04011C171C7D01
:0E1A7000880E1C13E552E552E7CFD9FF120095
:021A7E00040161
:101A80002051600BE842E842E842E842E84200099F
:101A900001E055D02151070A51E00B0A4FE0070A37
:101AA00040E0010A2CE00B0A28E0020A26E0030AC3
:101AB00022E0080A12E0010A0EE00F0A0AE0030A17
:101AC00001E03CD00101010E376F0101040E3F6FB0
:101AD00036D036D834D090D832D00101010E376FCD
:101AE0000101410E386F010E396F01014093010170
:101AF000010E3C6F24D0A8D822D0F6D820D0010106
:101B0000010E376F040124510101386F396B420E09
:101B10003827010E3923010140930101010E3C6F6A
:101B20000ED00101010E376F04012451EA6A420F01
:101B3000E96E010EEA2222C4EFFF01D000D01200AC
:101B4000800E0401205D57E12351030A34E0010AAD
:101B500010E0030A01E04DD00101010E376F0101D1
:101B6000510E386F250E396F120E01013C6F3D6B1F
:101B700040D00101010E376F04012251F66EF76A61
:101B8000D890F636F736120EF626260EF722090002
:101B9000F5CF38F10A00F5CF39F1020E0101F76AED
:101BA0003825F66E3951F7220900F5CF3CF10A00CD
:101BB000F5CF3DF11ED00101010E376F0401225116
:101BC000F66EF76AD890F636F736160EF626260E1B
:101BD000F7220900F5CF38F10A00F5CF39F138C105
:101BE000F6FF39C1F7FF0800F55001013C6F3D6B6E
:101BF00000D00101408312000101010E376F0F0E6A
:101C0000E66E710EE66E0F0EE66E54EC11F0E552C4
:101C1000E552E552010EE66E420EE66E010EE66EEC
:101C200054EC11F0E552E552E55222C441F10401B1
:101C3000225104E10101050E3F6F05D00101060E9E
:101C40003F6FE4EC0BF012000401286B296B0401D8
:101C500020511F0B020A16E0030A10E0010A01E0FE
:101C600035D00101010E376F80A402D00401288114
:101C7000010140A102D00401288328D00101010EF6
:101C8000376F24D00101010E376F040124510F0B6F
:101C9000080DF350116A000F106E040E112224512A
:101CA000800B01E0010E040DF350010110243A6F86
:101CB000000E11203B6F3AC1E9FF3BC1EAFFEF5034
:101CC000040B03E00401010E286F00D00101370569
:101CD0000AE10101280E386F040E396F01014093AB
:101CE0000101020E3C6F12000401220510E1205197
:101CF0001F0B00090CE10101010E376F030E0401F7
:101D0000215D03E10101408102D001014091040104
:101D100022513BE120511F0B020837E124510F0BE8
:101D2000000933E00101010E376F040124510F0B4C
:101D3000080DF350116A000F106E040E1122245189
:101D4000800B01E0010E040DF350010110243A6FE5
:101D5000000E11203B6F030E0401215D07E1840E8C
:101D60003AC1E9FF3BC1EAFFEF6E0FD024AF07D0C5
:101D7000400E3AC1E9FF3BC1EAFFEF6E06D0880E84
:0C1D80003AC1E9FF3BC1EAFFEF6E120020
:041D8C00D9CFE6FFC6
:101D9000E1CFD9FFE652F28EF28C860EE66EADEC04
:101DA00014F0E552CC6A9290DF6ADFCF10F00A0E91
:101DB000E76E1018E8AE02D0E73402D0E750105CAE
:101DC00010E2DFCFE9FFEA6AE9BEEA68D890E936B7
:101DD000EA36180EE926010EEA22EE6AED6ADF2ADB
:101DE000E4D70101600E186F040E196FE552E55239
:101DF000E7CFD9FF1200D9CFE6FFE1CFD9FFD95005
:101E0000FD0FE96EFF0EDA20EA6E500ED880EE5418
:101E1000080EED540AE2500EF36EFD0EF3CFDBFF19
:101E2000080EF36EFE0EF3CFDBFFFD0EDBCF10F0DE
:101E3000FE0EDBCF11F0200E105C020E11580AE2EC
:101E4000200EF36EFD0EF3CFDBFF020EF36EFE0EDF
:101E5000F3CFDBFFFC0EDBCFE9FFEA6AE9BEEA68FD
:101E6000D890E936EA36180EE926010EEA22FD0E70
:101E7000DBCFEEFFFE0EDBCFEDFFE552E7CFD9FF64
:101E80001200D9CFE6FFE1CFD9FFFE0EDBCFE9FF8D
:101E9000EA6AE9BEEA68D890E936EA36180EE92619
:101EA000010EEA22EECF10F0EFCF11F010C0F3FFD9
:101EB00011C0F4FF00D0E552E7CFD9FF12009EA277
:101EC0004ED09E92CC6A01014C07000EE76E4C1971
:101ED000E8AE02D04C3503D0E750D8804C553FE3F4
:101EE0004D5139E1808019C110F0116A10C04CF1D8
:101EF0004DC1E9FFEA6AE9BEEA68D890E936EA36F8
:101F0000180EE926010EEA22EECF10F0EFCF11F005
:101F10001050FF0B1BE04DC1E9FFEA6AE9BEEA6819
:101F2000D890E936EA36180EE926010EEA22EECFFD
:101F300010F0EFCF11F0FF0E1016000E1116D88022
:101F40001056010E11561050CC6E02D0CC6A4C07C0
:101F5000010E4D6F04D04D6B8090190E4C6F120026
:101F6000DACFE4FFE2CFDAFFE9CFE4FFEACFE4FF24
:101F7000F6CFE4FFF7CFE4FFF5CFE4FFF3CFE4FFC4
:101F8000F4CFE4FFFACFE4FF00EE00F0100EE80417
:101F900003E3EECFE4FFFBD700EE10F00A0EE804F7
:101FA00003E3EECFE4FFFBD7E652D9CFE6FFE1CF64
:101FB000D9FF020EE126F350DF6E010EF4CFDBFFF6
:101FC000F2A40BD0F2945F0EE66E730EE66E75EC23
:101FD00014F0E552E55201014A2B9EA252D09E9286
:101FE000CC6A01014C07000EE76E4C19E8AE02D036
:101FF0004C3503D0E750D8804C5543E301014D5197
:102000003BE1808019C11AF01B6A1AC04CF14DC126
:10201000E9FFEA6AE9BEEA68D890E936EA36180EBE
:10202000E926010EEA22EECF1AF0EFCF1BF01A508C
:10203000FF0B1BE04DC1E9FFEA6AE9BEEA68D890F0
:10204000E936EA36180EE926010EEA22EECF1AF03A
:10205000EFCF1BF0FF0E1A16000E1B16D8801A5673
:10206000010E1B561A50CC6E03D0CC6A01014C07EE
:102070000101010E4D6F05D04D6B80900101190ECD
:102080004C6FDF50F36E010EDB50F46E020EE15C1C
:1020900002E2E16AE552E16EE552E7CFD9FFE5528F
:1020A00000EE19F00A0EE80403E3E5CFEDFFFBD7DD
:1020B00000EE0FF0100EE80403E3E5CFEDFFFBD7D1
:1020C000E5CFFAFFE5CFF4FFE5CFF3FFE5CFF5FF6E
:1020D000E5CFF7FFE5CFF6FFE5CFEAFFE5CFE9FF74
:1020E000E5CFDAFF110005D811D893EC06F0FCD744
:1020F00012000F0EC1129284140E6F6E01013F6B1D
:102100000101406B0101416B22EF04F08EEC10F0F5
:0C2110006FBE02D0ADEC10F0C7EF0CF079
:04211C006DA60FD8C5
:1021200002D06DB613D801013F0508E16DBA06D0A3
:10213000686A696A69806988020E3F6F12006D6A79
:10214000696A6D860101010E3F6F12006D6A696A4E
:1021500001013F6B1200A6EF10F001013F5101E1B8
:1021600045D06850040B04E06950040B01E047D8E7
:102170006DB23CD06850010B04E06950010B01E0E6
:102180006BD86850100B04E06950100B01E02FD899
:102190006850400B04E06950400B01E049D868509A
:1021A000200B04E06950200B01E044D86850020B7A
:1021B00004E06950020B01E04DD8030E01013F5DC0
:1021C00001E214D00101476B040E475D0FE2685035
:1021D000080B0BE06950080B08E0AFEC09F00009B0
:1021E00001E168960101472BEFD700D01200698406
:1021F00068986D82A19AA08A0300A09A12006D923D
:10220000699468A402D06894FCD71200010140A12F
:102210000ED06D926D840101080E486F070E496F54
:102220004807000E495B48514911FAE16D941200CC
:10223000689C120070A00CD0800E0401005D07E1C4
:10224000840E0401045D03E104018C0E006F7090A4
:10225000689A12006A6A12006A6A686A9F0E6B6E58
:102260007B0E696E6E6A0F0EE66E710EE66E0F0ED5
:10227000E66E1AD8E552E552E552160E706E68A663
:1022800008D0689600000000000000000000000078
:10229000F6D76D9831EC0BF0010140910101416BD3
:1022A0000101030E3F6F1200D9CFE6FFE1CFD9FF46
:1022B000FD0EDBCFE9FFFE0EDBCFEAFFFC0EDB50AD
:1022C00004E0EE6AFC0EDB06F9D7E552E7CFD9FF52
:0222D0001200FA
:0E22D2008A849394E66A030EE66E020EE66EB0
:1022E000CAEC13F0E552E552E5520001870EF46F97
:1022F0000C0EF56F8DEF11F08A940FEC15F00001C4
:10230000F56F0FEC15F00001F46F8A84F4B502D07C
:10231000000E02D0010E00D01200D9CFE6FFE1CFAF
:10232000D9FF030EE126F4C010F0F5C011F0D890EB
:1023300011321032E804FBE110C0DEFF11C0DDFFF6
:10234000D950010FE96EDACFEAFFEF50100B08E128
:10235000010EDB9ADB9CDB9E00012B0EF66F16D084
:10236000010EDB8ADB8CDB8E00012D0EF66FDECFDB
:1023700010F0DDCF11F0FF0E101A111A10C0DEFFA1
:1023800011C0DDFFDF2A010E01E3DB2ADECF10F0F2
:10239000DDCF11F00A0E1102F3CF11F01002F3CFCE
:1023A00010F0F4501126040ED89011321032E804C7
:1023B000FBE110C0DEFF11C0DDFF040EF36E020E64
:1023C000F3CFDBFFDB50000833E2DECF10F0DDCFD0
:1023D00011F00A0E0D6E0E6A10C008F011C009F05F
:1023E000C8EC14F004C010F005C011F00F0E10146A
:1023F0003009E66E020EDB50EA6AF60FE96E000E57
:10240000EA22E552E750EF6ED9CFE9FFDACFEAFFD3
:102410000A0E0D6E0E6AEECF08F0EDCF09F0C8EC93
:1024200014F008C0EEFF09C0EDFF020EDB06CAD7AC
:10243000300E0001F75D07E1200EF76F300EF85DFA
:1024400002E1200EF86FFAC0FBF02E0EFA6FF80EC4
:10245000FC6F430EFD6F0D0EFE6FFF6B030EE15C14
:1024600002E2E16AE552E16EE552E7CFD9FF1200E0
:102470000D436F6D70696C656420756E64656620D0
:102480006C696E75780D0A000D54656D707320616E
:10249000637120636F6E6669670D0A000D4C65639A
:1024A0007475726520656E20626F75636C650D0AC8
:1024B000000D526563657074696F6E2057434F4C11
:1024C0000D0A000D30784135204E41434B0D0A0076
:1024D0000D307841352057434F4C0D0A000D3078B0
:1024E0003030204E41434B0D0A000D307830302003
:1024F00057434F4C0D0A000D30784134204E414374
:102500004B0D0A000D307841342057434F4C0D0AD3
:10251000000D496E6974204F6B0D0A000D30783044
:1025200030203A204E41434B0D0A003078343020A1
:102530003A204E41434B0D0A000D50617320642731
:1025400041434B20706F757220307835322E0D0A62
:01255000008A
:0F2551001201000202000008D8040A0001000174
:1025600002000109024300020100C0320904000018
:1025700001020201000524001001042402020524C6
:102580000600010524010001070582030800020975
:10259000040100020A0000000705030240000007D2
:1025A0000583024000000403090434034D00690060
:1025B000630072006F006300680069007000200013
:1025C00054006500630068006E006F006C006F00CF
:1025D00067007900200049006E0063002E0034037C
:1025E0004300440043002000520053002D003200FD
:1025F00033003200200045006D0075006C00610062
:10260000740069006F006E002000440065006D00DA
:0E2610006F0063256325A625AA25DE25041785
:02261E002A0E82
:10262000F66E080EF76E000EF86E01010900F55007
:10263000316F0900F550326F03E1316701D03DD0B1
:102640000900F5502C6F0900F5502D6F0900F55069
:102650002E6F09000900F550E96E0900F550EA6E89
:10266000090009000900F5502F6F0900F550306F7F
:1026700009000900F6CF33F1F7CF34F1F8CF35F187
:102680002CC1F6FF2DC1F7FF2EC1F8FF01012F531A
:1026900002E1305307E00900F550EE6E2F07F8E233
:1026A0003007F9D733C1F6FF34C1F7FF35C1F8FF62
:0C26B00001013107000E325BBFD71200A1
:0426BC0006500B02B7
:1026C000F3CF02F0F4CF03F00C02F3500326000E18
:1026D000F420046E06500D02F3500426000EF42080
:1026E000056E06500E02F350052607500B02F350FC
:1026F0000326F4500422000E052207500C02F3506A
:102700000426F450052207500D02F3500526085008
:102710000B02F3500426F450052208500C02F3502B
:0C272000052609500B02F350052612009C
:04272C00006AE86AED
:102730000EAEA3EF13F00B6C0C1E0D1E0E1E0C2222
:102740000D220E22001E09AEAEEF13F0066C071E1E
:10275000081E091E072208220922001E51EC14F04F
:1027600009BEC5EF13F000AE000C066C071E081E74
:10277000091EE86A072208220922026C031E041EB1
:10278000051E032204220522000C00BEB5EF13F043
:042790000188FF0CB1
:0C279400D9CFE6FFDACFE6FFE1CFD9FF96
:1027A000E2CFDAFF3F0EC716C66AFD0EDB50C61237
:1027B000FB0EDB50C712FC0EDB50030A09E0010AD6
:1027C00004E0020A06E1C78C04D0C78CC68801D099
:1027D000C688FD0EDB50050A03E0010A03E1928A78
:1027E000938201D093929380949EC68AE552E5CF5E
:0827F000DAFFE7CFD9FF120068
:0827F800D9CFE6FFDACFE6FFBE
:10280000FA0EE3CFD9FFFB0EE3CFDAFFFC0EE3CFE6
:10281000E9FFFD0EE3CFEAFFE9CFF3FFEACFF4FFD4
:10282000F80EE35003E1F90EE35008E0F80EE3067A
:1028300002E2F90EE306DECFEEFFF2D7FF0EE3CFA2
:0E284000DAFFE552FF0EE3CFD9FFE55212009A
:02284E00D9CFE0
:10285000E6FFE1CFD9FFA69EA69CFE0EDB50A96E37
:10286000FD0EDB50A86EA684550EA76EAA0EA76EAD
:10287000A682A6A202D00000FCD7E552E7CFD9FF7E
:102880001200D9CFE6FFE1CFD9FFA69EA69CFE0E8F
:10289000DB50A96EA680A85000D0E552E7CFD9FF43
:0228A000120024
:0E28A200056A046A036A026A200EE76ED89087
:1028B000063607360836093602360336043605363C
:1028C0000B50025C0C5003580D5004580E50055824
:1028D00009E30B50025E0C50035A0D50045A0E507F
:0A28E000055A062AE72EE4D712007D
:0628EA00D9CFE6FFDACFB2
:1028F000E6FFE1CFD9FFE2CFDAFFE652E652FC0E67
:10290000DBCFDEFFDBCFDDFF010EDB50D76EDF500C
:10291000D66EE552E552E552E5CFDAFFE7CFD9FFB3
:022920001200A3
:0E292200D9CFE6FFDACFE6FFE1CFD9FFE2CF53
:10293000DAFFFD0EDB507F0BD56ED76AD66AF294B4
:10294000FD0EDBAE02D0F28A01D0F29AD58EE552AE
:0A295000E5CFDAFFE7CFD9FF120050
:06295A00D9CFE6FFDACF41
:10296000E6FFE1CFD9FFE2CFDAFFFD0EDB50FB0B34
:10297000CA6ECC6A9E92FD0EDBAE02D09D8201D063
:102980009D92CA84E552E5CFDAFFE7CFD9FF120066
:10299000056A046A100EE76ED890083609360436C8
:1029A00005360D50045C0E50055805E30D50045ECD
:0C29B0000E50055A082AE72EF0D712003E
:0429BC0013EE00F026
:1029C00023EE00F0F86A019C0FEC13F014EC15F004
:0829D00073EC10F0FBD71200BC
:0829D800FF0EE3501C6E1B0E04
:1029E00000D001D0200EE76EE72EFED71C2EFAD7BE
:0429F00000D0120001
:0C29F400056A080EE76ED890093605361B
:102A00000E50055C02E3056E092AE72EF7D7120087
:0E2A100000EE00F00F0EEE6AEA62FDD7120033
:022A1E00C96A83
:082A2000C7A0FED7C950120047
:022A280012009A
:042A2A0000000100A7
:022A2E000100A5
:00000001FF
